:020000040800F2
:10000000889F00209503000827570008CD4F00085F
:100010002557000825210008BD77000800000000D2
:10002000000000000000000000000000D5020008F1
:10003000592800080000000031030008AB6A0008DE
:10004000AF030008AF030008AF030008AF030008C8
:10005000AF030008AF030008AF030008AF030008B8
:10006000AF030008AF030008AF030008AF030008A8
:10007000AF030008AF030008AF030008AF03000898
:10008000AF030008AF030008AF030008AF03000888
:10009000C9210008AF030008AF030008AF03000840
:1000A000AF030008AF030008AF030008AF03000868
:1000B000AF030008AF030008AF030008AF03000858
:1000C000AF030008AF030008AF030008AF03000848
:1000D000AF0300083D760008BD760008AF030008B6
:1000E000AF030008AF030008AF030008AF03000828
:1000F000AF030008AF030008AF030008AF03000818
:10010000AF030008AF030008AF030008AF03000807
:10011000AF030008AF030008AF0300086D6B0008D1
:10012000AF030008AF030008AF030008AF030008E7
:10013000AF030008AF030008AF030008AF030008D7
:10014000AF030008AF030008AF030008AF030008C7
:10015000AF030008AF0300080D2700083D77000833
:10016000AF030008AF030008AF030008AF030008A7
:10017000AF030008AF030008AF0300080000000051
:10018000AF030008AF03000800F002F800F092F897
:100190000AA090E8000C82448344AAF10107DA45E2
:1001A00001D100F087F8AFF2090EBAE80F0013F0A2
:1001B000010F18BFFB1A43F001031847489F0000C6
:1001C000689F0000103A24BF78C878C1FAD8520757
:1001D00024BF30C830C144BF04680C6070470000C1
:1001E0000023002400250026103A28BF78C1FBD840
:1001F000520728BF30C148BF0B6070476E2900F01E
:10020000C982702900F00B84662909F03E856529B2
:1002100009F03B85672909F03885612909F03785A0
:1002200003681B0A28BF41F08001692900F076822B
:10023000642900F07382752900F070826F2900F044
:100240009883782900F0D783E92900F03383E429E3
:1002500000F03083F52900F02D83EF2900F095831D
:10026000F82900F0D6830368DB0928BF41F080013C
:10027000632901F02D81732901F03281E32901F016
:100280003D81F32901F04281002070471FB509F03C
:10029000F2FC01F091F904000020002108F0B8FF01
:1002A000401C60600020002108F09CFFE0601FBD42
:1002B00010B510BD01F052F91146FFF7E7FF07F046
:1002C000ADFA01F02FFA03B4FFF7F2FF03BC01F01F
:1002D00033FA00002C4B19680868B0E8F04F80F33F
:1002E0000988BFF36F8F4FF0000080F311887047CB
:1002F0000000000008480068006880F308884FF09C
:10030000000080F3148862B661B6BFF34F8FBFF36D
:100310006F8F00DF00BF00BF08ED00E0DFF80C00CA
:10032000016841F470010160704700BF88ED00E092
:10033000EFF30980BFF36F8F134B1A681EF0100F95
:1003400008BF20ED108A20E9F04F106009B44FF08B
:10035000500080F31188BFF34F8FBFF36F8F08F009
:10036000F3F94FF0000080F3118809BC19680868A0
:10037000B0E8F04F1EF0100F08BFB0EC108A80F309
:100380000988BFF36F8F70475C000020EFF3058092
:10039000704700000948804709480047FEE7FEE72C
:1003A000FEE7FEE7FEE7FEE7FEE7FEE7FEE7FEE725
:1003B00004480549054A064B704700005D6B00087C
:1003C0008901000888990020889F0020889B0020D0
:1003D000889B002053EA020C00F069802DE9F04B65
:1003E0004FF00006002B1FBFB3FA83F503FA05F4A4
:1003F00024FA05F65E4012BF1643B2FA82F502FAFD
:1004000005F4C5F120051EBF22FA05FC44EA0C04E0
:10041000203556EA044C4FEA144418BF641C4FF0D0
:1004200000084FF00009904271EB030C39D300290A
:1004300019BFB1FA81F701FA07F6B0FA80F700FAAE
:1004400007F6C7F120071EBF20FA07FC46EA0C0694
:100450002037B6FBF4FCA7EB0507103F07F01F0B96
:10046000CBF120060CFA0BFB2CFA06F644BFB34680
:100470000026202FA4BF5E464FF0000B5BEA060C5F
:1004800008BF4FF0010B19EB0B09ABFB027C48EBEB
:100490000608C01B06FB02CC0BFB03CC71EB0C0166
:1004A000C1E70B46024641464846BDE8F08B13B50E
:1004B0004FF000004FF00001AFF30080BDE81C409A
:1004C000704700001CB50C46064B7B446946009003
:1004D000204600F078F904460020694600F086F9CD
:1004E00020461CBD1F030000032A40F2308010F09C
:1004F000030C00F0158011F8013BBCF1020F6244BF
:1005000098BF11F801CB00F8013B38BF11F8013B4F
:10051000A2F1040298BF00F801CB38BF00F8013BFC
:1005200011F0030300F04A83083AC0F0088051F844
:10053000043B083A51F804CBA0E80810F5E7121D77
:100540005CBF51F8043B40F8043BAFF30080D20796
:1005500024BF11F8013B11F801CB48BF11F8012B62
:1005600024BF00F8013B00F801CB48BF00F8012B85
:10057000704702F0FF0343EA032242EA024200F01E
:1005800051BB4FF0000200B5134694469646203901
:1005900022BFA0E80C50A0E80C50B1F12001BFF43C
:1005A000F7AF090728BFA0E80C5048BF0CC05DF8A2
:1005B00004EB890028BF40F8042B08BF704748BFF0
:1005C00020F8022B11F0804F18BF00F8012B704764
:1005D0004FF0013C50F8042B51F8043B9A4221D1D2
:1005E000A2EB0C03934313EACC1317D150F8042B5E
:1005F00051F8043B9A4215D1A2EB0C03934313EA42
:10060000CC130BD150F8042B51F8043B9A4209D17A
:10061000A2EB0C03934313EACC13DBD04FF00000A2
:10062000704700BFD01A01BAB1FA81F101F0180188
:1006300022FA01F0CB40C1F12001DBB2C0B2C01AF6
:100640002CFA01F3D11A914311EAC311E6D1704794
:1006500070477047704770B5044685690068C106E9
:1006600001D5302600E02026C00707D070BDD4E9B0
:10067000012130469047206A401C20626D1EF6D54D
:1006800070BD70B5044685690078C00707D170BD9C
:10069000D4E9012120209047206A401C20626D1E71
:1006A000F6D570BD09684A0501D540B27047C90545
:1006B000FCD500B2704709684A0501D5C0B2704741
:1006C000C905FCD580B2704770B50C460546012AB5
:1006D00005D02878800600D5EA69002302E00123CE
:1006E00005E05B1C934202D2E05C0028F9D1A869C6
:1006F000E618C01AA861286A184428622846FFF73D
:10070000AAFF04E0D5E9012114F8010B9047B44297
:10071000F8D32846FFF7B5FF70BD00002DE9F04182
:100720000646002410687529314616A510D0FFF73B
:10073000B9FF002802DA404213A507E031688A07B2
:1007400001D512A502E0490704D511A5012401E055
:10075000FFF7B1FF00210A2206F1240709E0B0FBF0
:10076000F2FCB0FBF2F302FB1C0030307854184668
:10077000491C0028F3D123462A463046BDE8F04103
:1007800000F0B5BA000000002D0000002B000000B2
:100790002000000011680268006A530501D5087046
:1007A0000AE0D30501D5088006E0130603D5C21779
:1007B000C1E9000200E008600120704701694A1C9D
:1007C00002610878704700B58FB0CDE90131002192
:1007D000059105497944CDE903101146684600F0BA
:1007E00029F90FB000BD0000E5FFFFFF0A6802F81D
:1007F000010B0A60704700002DE9FF5F15468A462D
:100800000446DFF8AC80F8440027D8E900103E46E3
:10081000CDE9001010E03AF816106A4602A800F080
:1008200079FE411C07D02178890603D5E269391881
:1008300091420DD80744761C2078800602D5E069E5
:10084000B84205DDAE42E6DB3AF816000028E2D1F8
:10085000A069C01BA0612046FFF7FDFED8E900108B
:10086000CDE90010002017E03AF818106A4602A8F7
:1008700000F050FEB0F1FF3F81460BD000250DF196
:10088000080B05E0D4E901211BF8050090476D1C19
:100890004D45F7D308F10100B0428046E4DB206A01
:1008A000384420622046FFF7ECFEBDE8FF9F0000C1
:1008B0001A9700002DE9F0418046D21D22F0070270
:1008C0000025D2E90002F52915A614D0011E72F107
:1008D000000106DA0023D0EB030063EB020211A64D
:1008E00008E0D8F800108B0701D50FA602E04907F1
:1008F00001D50EA601251146002408F1240704E0C5
:1009000000F0B0F930323A55641C50EA0102F7D1D8
:100910002B46324621464046BDE8F04100F0E7B99B
:10092000000000002D0000002B000000200000004F
:1009300030B4002100F1240408E002F00705D208D9
:10094000303542EA4372DB086554491C52EA03051C
:10095000F3D10468002310A2250707D5A40600D40C
:1009600021B1C46901230DA2641EC46130BC00F032
:10097000BEB910B5044621461068FFF79CFE02463A
:100980002046BDE810400023D2E7D21D22F0070127
:10099000D1E90023CCE70000000000003000000097
:1009A000F0B40D460188090502D5214C7C4402E0D3
:1009B0001F4C7C440E34002100F1240608E002F0B4
:1009C0000F071209E75D42EA03721B097754491CBD
:1009D00052EA0307F3D102780023120704D5702DE1
:1009E00006D009B1022311342246F0BC00F07FB9D1
:1009F00001231034F8E770B504460D46214610680F
:100A0000FFF759FE024629462046BDE87040002304
:100A1000C6E7D21D22F00703D3E90023C0E703682D
:100A2000126843F0200303600823C3610023B7E783
:100A30007C9500002DE9F05F894604464FF0000ADE
:100A4000DFF874B1FB44C0F820A02046E168884775
:100A5000002874D0252806D0D4E901219047206AC7
:100A6000401C2062F1E700265F462046E168884787
:100A70002028054607DB312D05D2781910F8200C07
:100A800008B10643F1E7B00701D526F00406C4F823
:100A90001CA00027C4F818A02A2D09D0284606F06B
:100AA000B6FE38B304EB8708303DC8F8185019E09B
:100AB00059F8041B204604EB87029161E1688847DE
:100AC000012F054618D1E069002820DA26F020061B
:100AD0001DE0D8F8180000EB800005EB400030382E
:100AE000C8F818002046E1688847054606F08FFEE2
:100AF0000028EED1012F0AD02E2D08D12046E16822
:100B000088477F1C0546022F46F02006C4DBA069FB
:100B1000002803DA404246F00106A061F00701D048
:100B200026F010066C2D0BD0682D09D04C2D39D035
:100B30006A2D35D0742D35D07A2D33D016E038E0BB
:100B4000E1682F4620468847B842054609D16C2FF8
:100B500026D04FF48060E16806432046884705466A
:100B600004E06C2F1AD04FF4807006430DB3A5F14A
:100B70004100192802D8203546F400664A46294625
:100B8000204626604E46FFF739FB80B101280BD086
:100B9000F61D26F0070000F1080956E74020E4E7BB
:100BA0008020D8E70020D6E706F104094DE7284663
:100BB00052E7206ABDE8F09F0C95000010B5203A7E
:100BC000C0F00B80B1E81850203AA0E81850B1E806
:100BD0001850A0E81850BFF4F5AF5FEA027C24BFBC
:100BE000B1E81850A0E8185044BF18C918C0BDE8B3
:100BF00010405FEA827C24BF51F8043B40F8043B7C
:100C000008BF7047D20728BF31F8023B48BF11F830
:100C1000012B28BF20F8023B48BF00F8012B70478A
:100C20004FF000020429C0F0128010F0030C3FF4D2
:100C3000AAACCCF1040CBCF1020F18BF00F8012BD8
:100C4000A8BF20F8022BA1EB0C01FFF79CBC5FEAC8
:100C5000C17C24BF00F8012B00F8012B48BF00F82D
:100C6000012B704730B5B0F10A024FEA900E71F1D6
:100C700000034EEA817EB0EB0E0061EB91014FEA7A
:100C8000101E4EEA017E10EB0E0041EB11114FEAEF
:100C9000102E4EEA016E10EB0E0041EB11214FEACF
:100CA000104E4EEA014E10EB0E0041EB1141401880
:100CB00041F100014FEAD00040EA41704FEAD10112
:100CC00010EB80054FEA810444EA907444EB010480
:100CD0006D1944EB0404521BA3414FF0000348BFBD
:100CE0000A3200D530BD401C41F1000130BD2DE974
:100CF000F0470D4699469246044600F124080168E3
:100D0000880604D5E06921F01001216000E001208F
:100D1000A84201DD471B00E00027A1697A1902EB18
:100D20000900081AA0612078C00602D42046FFF707
:100D300092FC002608E0D4E901211AF80600904749
:100D4000206A401C761C20624E45F4DB2078C006E9
:100D50000AD52046FFF77FFC06E0D4E901213020C8
:100D60009047206A401C2062381EA7F10107F4DC7E
:100D700007E0D4E9012118F805009047206A401CDB
:100D80002062281EA5F10105F3DC2046FFF779FC5F
:100D90002078000602D50220BDE8F0870120FBE79D
:100DA00070472DE9FF4F0C461E464FF0FF378BB0C2
:100DB000D2E90001DDF860800A908A46C1F30A5545
:100DC00005B93D46002108464FF00000BAF1000F7A
:100DD00000F4400005DA00EB80004FF4400101EA26
:100DE00050004FEA9059B9F1010F00DDB9460A9859
:100DF00050EA4A000ED044F61050A5F2FF354543A4
:100E00002F14B8F1000F1ED07542291E1EDDC9F146
:100E100000021CE0B8F1010F4FF0000001D03021BA
:100E200003E0F24305E02154401CB042FBDB3046B6
:100E30000022002121540B99C1F80880C1E900204B
:100E40000FB0BDE8F08FBD1B6D1CDEE74A4600DA2F
:100E5000694206A800F0F4FB06AB93E8070003AB79
:100E600083E8070050460A9900F06DFC8DE8070002
:100E7000A0F500501F3800900398002D0ADD42F2C3
:100E80001F014A460844002303A90390684600F066
:100E9000D6FE09E0A0F500504A461F38002303A9FA
:100EA0000390684600F0E0FE8DE807000004000CA7
:100EB00003D04FF0FF30410800E01046B8F1000FBA
:100EC00003D00022009215461EE0751E05D4FFF7E0
:100ED000C9FE303262556D1EF9D5B3460122084372
:100EE00002D000227F1C04E02078302801D10022AB
:100EF0007F1E002A099784D01DE0112D07DAFFF725
:100F0000B1FE303262556D1C50EA0102F5D1084342
:100F100002D00098C8B10EE00021681E05E0235CF5
:100F2000625C63542254401E491C8142F7DBAB468D
:100F3000A81B401E0990002004F80B000B98099A8A
:100F4000C0F80880C0E9002B7AE711264FF00008AE
:100F500057E72DE9F04F88460446D21D22F00701DD
:100F600091B0D1E90001CDE90A0106F028FC024662
:100F70000B98C00F01D02D2007E02068810701D514
:100F80002B2002E0202101EAC000032A099001D0B1
:100F9000072A05DB03464146204600F011FB0BE122
:100FA0002078800601D5E06900E00620B8F1650FE1
:100FB000814606D0B8F1660F18D0B8F1670F70D12E
:100FC00031E00020B9F1110F009001DB112301E0A5
:100FD00009F101030AAA01A90CA8FFF7E2FEDDE965
:100FE0000C70002609F10105834647E001204B46BD
:100FF00000904FF000470AAA01A90CA8FFF7D1FE04
:10100000DDE90DB00C995D46002610B909F101002B
:101010000D18B9EB050003D4C0F1FF3609F1010545
:10102000A5EB09002BE0B9F1010F01DA4FF001093E
:101030000020B9F1110F0090484601DD112300E0B6
:1010400003460AAA01A90CA8FFF7ABFEDDE90C7064
:101050004D4600268346207800070AD4AB4500DAC7
:101060005D4601A8012D04DD411911F8011C30294C
:1010700007D04F4502DA17F1040F04DA0120824647
:101080000FE06D1EEEE7002F02DCED1B3E4403E097
:10109000781CA84200DD7D1CB81B00F1010A4FF04E
:1010A00000472078000703D4AA4501DB4FF0FF3A40
:1010B0000021B7F1004F0DF143088DF8431024D003
:1010C00002202B23002F01DA7F422D230A21021E4A
:1010D000A0F1010000DC5FB197FBF1FC97FBF1F29E
:1010E00001FB1C7C17460CF1300C08F801CDEEE733
:1010F000A8F1010003702188090501D5452100E010
:101100006521A0F1010800F8011C09980FA9A1EBC5
:101110000807FF1D00B10120411901EBEA70A16928
:101120003844081A401EA0612078C00602D4204628
:10113000FFF791FA099828B1D4E901219047206A74
:10114000401C20622078C00622D52046FFF783FA93
:101150001EE0002E04DBB34502DD01A8805D00E047
:101160003020D4E901219047206A401C2062761C7F
:10117000AAF101005FEA000A0AD100F01DFAC06876
:101180000168405CD4E901219047206A401C20623C
:10119000281EA5F10105DCDC07E0D4E9012118F8DF
:1011A000010B9047206A401C2062381EA7F10107FE
:1011B000F3DC2046FFF765FA032011B041E600009A
:1011C0002DE9F04F04460D46D21D22F0070089B0EC
:1011D000D0E900974846394606F0F1FA0246F80F82
:1011E00001D02D2307E02068810701D52B2302E0E1
:1011F000202101EAC0038DF820300BB1012000E06E
:101200000020032A824601D0072A04DB2946204613
:1012100000F0D6F93FE12078800601D40D2500E0EA
:10122000E569C7F30A560D2D49DA00214FEA175B2D
:1012300008464FF00000002F00F4400007DA00EBF2
:1012400080004FF4400100EBD07001EA600081158E
:10125000012901DD4FF0FF3100224FEA850CBCF17E
:10126000180F06D31346ACF118004FF08052C2405D
:1012700003E04FF4801323FA0CF30CF10C0CBCF1D7
:10128000200F04D3ACF1200C09FA0CF001E007FAAE
:101290000CF000294FF0004801DD18B90FE00ED125
:1012A00040450CD319EB02095F4121B9404502D1F9
:1012B0009F4329EA0209BBEB175F00D0761C208808
:1012C000000502D57B48784402E07A487844193812
:1012D00008AA302302F80A30037C0AF10101002E2B
:1012E0000AF1020A53546A4602DC4FF0300101E071
:1012F0004FF031014FF001088DF8001002D0A6F236
:10130000FF3603E059EA470100D06B4E002D02DCA6
:101310002178090704D54FF002082E218DF801101D
:10132000C44600210BE0C7F303433F01C35C491CE3
:101330006D1E02F80830052908F1010801DA002DB8
:10134000F1DC00210CE000EB1973491C1B786D1EC9
:10135000082902F808304FEA091908F1010801DAF2
:10136000002DF0DC21688B0602D516E0A8F10108FB
:10137000E04505DD02EB080313F8013C302BF5D006
:10138000B8F1000F09DD02EB080313F8013C2E2B26
:1013900003D1090701D4A8F10108002D05DD3E2184
:1013A00002F808106D1E08F10108407C002E02F8BA
:1013B000080008F1010804DA2D20764202F808003E
:1013C00002E02B2002F808000A214FF47A708642CE
:1013D00008F101080BDB96FBF0F3303302F808301C
:1013E00096FBF0F308F1010800FB136601E0642EA0
:1013F0000CDB642096FBF0F3303302F8083096FBE8
:10140000F0F308F1010800FB136601E00A2E06DB89
:1014100096FBF1F0303002F8080008F1010896FB65
:10142000F1F001FB1060303002F80800A16908F10A
:10143000010808EB050202EB0A00081AA0612078F7
:10144000C00602D42046FFF706F9216A08AE01EB78
:101450000A00206204E0D4E9012116F8010B90474C
:10146000BAF1010AF7D22078C00602D52046FFF76C
:10147000F2F86E4609E016F8010B3E280FD0D4E9C9
:1014800001219047206A401C2062B8F10108F2D285
:101490002046FFF7F6F809B00320BDE8F08F206A78
:1014A0002844206203E0D4E90121302090476D1EDA
:1014B000EBD3F8E7AE8C000002FCFFFF10B54369E8
:1014C00013B1AFF3008001E0FFF7FEF8012010BD7B
:1014D000127800F124010A7000224A700122EDE71F
:1014E00011684FF0FF32E9E710B5436913B1AFF36C
:1014F000008001E0FFF780F9012010BD128800F1A3
:10150000240182840022C2840122EDE711684FF099
:10151000FF32E9E770B516460C46054600F044F880
:10152000036893F80101012806D0FF2C0FD8185D3D
:1015300068B101202C7070BDD3F8070132462146F6
:1015400003F2071303442846BDE8704018474FF0E4
:10155000FF3070BD00487047289900207546FFF79E
:10156000F9FFAE4605006946534620F00700854660
:1015700018B020B5FEF71CFFBDE820404FF0000674
:101580004FF000074FF000084FF0000B21F007016B
:10159000AC46ACE8C009ACE8C009ACE8C009ACE8AE
:1015A000C0098D467047000010B500F005F8001D19
:1015B00010BD00BF5D7C00000048704748990020C6
:1015C0002DE9F0411F46044603260168072A01F46D
:1015D000006004DB08B116A505E016A503E008B11C
:1015E00015A500E015A521F010002060A069C01E1F
:1015F000A0610FB1401EA0612046FFF72CF84FB14B
:10160000D4E9012138469047206A401C2062C01C62
:10161000206206E0206AFAE7D4E9012115F8010BFF
:101620009047761EF8D22046FFF72BF8BDE8F081F0
:101630004E414E006E616E00494E4600696E660076
:101640002DE9F047814616468AB0354878440DC8E2
:101650008DE80D0032487844801C03AC0DC884E846
:101660000D0041F69B300844372190FBF1F290FBCE
:10167000F1F5A5F1800501FB12041B3C02D5644283
:10168000012000E00020DFF898A080460027FA44FF
:10169000AAF1BE0A0EE0E0070AD03246684607EB20
:1016A000470101230AEB810100F0DEFA8DE8070013
:1016B00064107F1C002CEED1194F7F44AE3F19E01F
:1016C000E80715D007EB04100DF1180A90E80E009A
:1016D0008AE80E00C068F04201D19819089032469D
:1016E000012306A903A800F0BFFA03AB83E80700B3
:1016F0006D10641C002DE3D14FF0010332466946A2
:10170000B8F1000F03A802D000F099FA01E000F050
:10171000ABFAC9E90001C9F808200AB0BDE8F087B2
:10172000B889000010B50446AFF300802046BDE83C
:101730001040FEF7C8BD000001491820ABBEFEE70F
:101740002600020070475FEA400C08BF91F0000FCE
:101750004FEA8C234FEAC12243EA51514FEA1C5011
:1017600018BF00F5F0404FEA300018BF41F00041CB
:101770005FEA6C5C00F02980BCF1FF3F08BF40F0DD
:1017800080407047130C06BF12044FF0100C4FF04E
:10179000000C130E04BF12020CF1080C130F04BF4F
:1017A00012010CF1040C930F04BF92000CF1020C17
:1017B000D30F04BF52000CF1010C11464FF0000290
:1017C000A0F11F00A0EB0C00704711F0004F08BF04
:1017D000704731F000413FF4D5AF0B0C06BF090450
:1017E0004FF0100C4FF0000C0B0E04BF09020CF16F
:1017F000080C0B0F04BF09010CF1040C8B0F04BF84
:1018000089000CF1020CCB0F04BF49000CF1010C54
:10181000CCF12003A0EB0C0022FA03F302FA0CF245
:1018200041EA030100F10100704720F07F4C80EA9B
:10183000030023F07F47ACEB070303F57C5300F074
:10184000004003F1FF032DE980494FEA154B09B42D
:101850004FEA144325EA0B4E24EA03480FF204260C
:1018600006EB132749083E785FEA320203FB06675E
:10187000C7F5000707FB06F64FEA54374FEAD6468E
:1018800006F1020607FB066CCCF1005C4FEA1C4730
:101890002CEA074C07FB06F40CFB06F504EB154697
:1018A0004FEA961634BF00204FF000404FEAD13780
:1018B00006FB07FC4FEA1C4C0CFB0BF7D21B03FB8F
:1018C0000CF761EB07010CFB0EF7B0EB074072EB76
:1018D00017420CFB08F734BFA2EB0742B2EB0742FA
:1018E00061EB17414FEA0C444FEA910706FB07FCF6
:1018F0004FEA1C4C0CFB0BF7B0EBC74072EB5732B6
:1019000003FB0CF734BFA2EBC742B2EBC74261EB5B
:1019100057310CFB0EF7B0EBC70072EB57720CFBA4
:1019200008F734BFA2EBC702B2EBC70261EB5771F5
:10193000039F4FEA816141EA921104EBCC044FEA24
:10194000D1374FEA826206FB07FC42EA90124FEA67
:1019500080604FEA1C4C0CFB0BF7D21B03FB0CF70F
:1019600061EB07010CFB0EF7B0EB074072EB17427F
:101970000CFB08F734BFA2EB0742B2EB074261EB66
:1019800017414FEA8C554FEA910704EB9C2406FB64
:1019900007FC4FEA1C4C0CFB0BF7B0EBC74072EB9B
:1019A000573203FB0CF734BFA2EBC742B2EBC7427E
:1019B00061EB57310CFB0EF7B0EBC70072EB5772BF
:1019C0000CFB08F734BFA2EBC702B2EBC70261EB16
:1019D000577115EB4C254FEA816141EA92114FEAAC
:1019E00082624FEAD13742EA901206FB07FC44F1CB
:1019F00000044FEA80604FEA1C4C0CFB0BF7D21B33
:101A000003FB0CF761EB07010CFB0EF7B0EB074093
:101A100072EB17420CFB08F734BFA2EB0742B2EBA4
:101A2000074261EB174115EB1C154FEA813141EA82
:101A300092414FEA823242EA90424FEA80304FEAC6
:101A40000C7644F1000448EA03434EEA0B484FF099
:101A5000000EB2EB080C71EB030724BF6246394657
:101A60004EEB0E0E4FF0000B0018524149414BEB6C
:101A70000B0BB2EB080C71EB03077BF1000B24BFDF
:101A8000624639464EEB0E0E4FF0000B00185241E5
:101A900049414BEB0B0BB2EB080C71EB03077BF1ED
:101AA000000B24BF624639464EEB0E0E51EA020788
:101AB00018BF46F0010616EB0E7655F1000254F100
:101AC000000103D5BDE88901BDE80088BDE88901B2
:101AD000BDE80048B619524141EB0101A3F10103F1
:101AE000704780807F7E7D7C7B7A7978777676758B
:101AF0007473727171706F6E6E6D6C6C6B6A6A6903
:101B00006868676666656464636362616160605F9C
:101B10005F5E5E5D5D5C5C5B5B5A5A595958585715
:101B2000575656555555545453535252525151507D
:101B300050504F4F4F4E4E4D4D4D4C4C4C4B4B4BD0
:101B40004A4A4A4949494848484747474746464616
:101B50004545454444444443434343424242424151
:101B60004141002B9C4630D477002BD01CB54FEA66
:101B7000370703B44FF010004FF01001BAF1000F17
:101B800006D0BCF1000FDCBF40F0080040F00801B7
:101B90004FF000000FBCBDE810400BF1010BBBF192
:101BA000010F08BF5FEA170722BF12F1010211F10E
:101BB00001014FF0004143F1000300F0004043EA0F
:101BC00000007047F9D35708D0E746EA064613F1FC
:101BD000400F4FEA16461FDD13F1200FDFBF1643FB
:101BE0000A46002120335B42BED0C3F1200746EAFB
:101BF000064602FA07F74FEA164646EA0706C3F119
:101C0000200722FA03F201FA07F721FA03F14FF055
:101C1000000342EA0702A7E746EA020646EA06464A
:101C20004FEA164646EA0106BCBF46EA0646360CAF
:101C30004FF000034FF000024FF0000194E72DE950
:101C4000804C9A46934670B491E8380007C831EA50
:101C5000400C48BF34EA430C03D5FFF7E6FDFFF71D
:101C600080FFF0BCBDE8008C2DE9804C9A4693467D
:101C700070B491E8380007C810F0804F08BF13F027
:101C8000804F03D100F005F8FFF76BFFF0BCBDE813
:101C9000008C20F07F4780EA030023F07F4C07EBA5
:101CA0000C03A3F57C5300F00040A3F1FE0392F077
:101CB000000F00F0B38095F0000F00F077802DE961
:101CC00001494FEA11404FEA144621EA004800FB5F
:101CD00006FC24EA064708FB06F607FB08F800FBAB
:101CE00007F718EB06484CEB164C4FEA124B18EB73
:101CF00007484FEA15464CEB174022EA0B4E0BFB08
:101D000006FC25EA06470EFB06F607FB0EFE0BFB5C
:101D100007F71EEB064E4CEB164C4FF000061EEB81
:101D2000074E4CEB174B18EB0B0840F1000018EB7B
:101D30000E0B58EB000840F100008F1A4FF0000125
:101D40003CBFC943661B14BFB5EB040C00213CBF6C
:101D5000C943F61B4FEA17444EEA8E0E27EA0445A4
:101D60004FEA1C4704FB07622CEA074C05FB07F708
:101D70000CFB05F604FB0CFC16EB074642EB174286
:101D800016EB0C4642EB1C421BEB060658EB02021C
:101D9000414146EA9E0601D5BDE80189B619524186
:101DA00041EB0101A3F10103BDE801894FEA1445AC
:101DB0004FEA114724EA054621EA074C05FB07F4E0
:101DC00006FB07F70CFB06F105FB0CFC11EB0741CA
:101DD00044EB17444FEA124711EB0C4144EB1C440F
:101DE00022EA074C05FB07F206FB07F70CFB06F699
:101DF00005FB0CFC16EB074642EB174216EB0C46B4
:101E000042EB1C456A1854F1000148BF7047B619EF
:101E1000524141EB0101A3F10103704795F0000F1E
:101E200037D04FEA11424FEA144721EA024624EA2A
:101E3000074C02FB07F106FB07F70CFB06F402FB5D
:101E40000CFC14EB074441EB17414FEA154714EB28
:101E50000C4441EB1C4125EA074C02FB07F506FB4D
:101E600007F70CFB06F602FB0CFC16EB074645EBEE
:101E7000174516EB0C4645EB1C42121951F10001B7
:101E800048BF7047B619524141EB0101A3F101036C
:101E900070474FEA14454FEA114724EA054621EA04
:101EA000074C05FB07F106FB07F70CFB06F24FF0AA
:101EB000000605FB0CFC12EB074241EB174112EB4D
:101EC0000C4251EB1C4148BF7047921841EB010195
:101ED000A3F10103704710B50146806B026C12F04C
:101EE000500F05D0026CD20626D500F061FD10BD62
:101EF000016C41F40071016401688A6812F0405F6E
:101F000017D1027EAAB9CA6A12F4700F02D08A6889
:101F100052050ED44A6822F020024A60016C21F476
:101F200080710164016CC90403D4016C41F00101AA
:101F3000016400F03BFD10BD806BC26CBDE8104039
:101F40000846104710B5806B40210164416C41F098
:101F50000401416400F02CFD10BD10B5806B00F051
:101F600026FD10BD464910B54A6822F440324A6049
:101F70004A6843681A434A6001684A6822F48072DA
:101F80004A6001684A68036942EA03224A600168BC
:101F90004A6822F040724A6001684A6883681A43BE
:101FA0004A6001688A6822F400628A6001688A686F
:101FB000C3681A438A60816A6FF07062D142016817
:101FC0008A6822F070628A6001688A680CD0836A2D
:101FD0001A438A6001688A6822F040528A60016868
:101FE0008A68C36A1A4301E022F040528A6001689D
:101FF0008A6822F002028A6001688A68037E42EAE7
:1020000043028A6090F82010002901684A680FD0C6
:1020100042F400624A6001684A6822F460424A6001
:1020200001684A68174C436A04EB43331A4301E0E2
:1020300022F400624A600168CA6A22F47002CA622D
:102040000168CA6A838B104C04EB03531A43CA62BB
:1020500001688A6822F400728A6001688A6890F8D0
:10206000303042EA43228A6001688A6822F4806242
:102070008A6001688A68406942EA8020886010BDF1
:102080000023014000E0FFFF0000F0FF1D489FED2E
:102090001C0A1D4980ED000A80ED010A80ED020A4C
:1020A000D1ED000A9FED190A1A49DFED1B1A30EE37
:1020B000801ADFED170A31EE601A80ED031A91EDF8
:1020C000001A164931EE211A80ED041A91ED001A1A
:1020D000134931EE001A31EE601A80ED051A91EDC8
:1020E000001A002131EE000A30EE600A80ED060A87
:1020F0000177C1778177417780F820107047000021
:1021000000000000049500200801002000000743A3
:102110000000B4430C0100200000B4421001002074
:1021200014010020FEE700002DE9F04100211248D3
:1021300002F00CFC114F104D114E002407F106085F
:1021400037F814002968B6FBF0F0C86237F81400BD
:10215000B6FBF0F1B6FBF0F0E9602968400848638F
:1021600038F8140001F06EFB641C062CE8D32968D3
:1021700000204863BDE8F0816C030020E0000020EF
:1021800040420F0000B58BB00020009001900290FB
:1021900003900490059006900120079008900E206F
:1021A00009906946074800F015FE08B100F055FB9C
:1021B000044801F047F948F60241024800F09AFD50
:1021C0000BB000BDD0010020014800F02CBF000082
:1021D000D001002070B50D4604460021064800F0ED
:1021E00081FE002806D02B4622460021024800F03E
:1021F0008AFE207C70BD0000D001002000B587B0B1
:10220000012306930023CDE901030090CDE90332B9
:102210008DF814300A4606AB6946074800F07CFD8D
:1022200010B1012007B000BD034800F0E6FEC0B2C7
:102230000328F9D10020F5E7D00100209FED4B0ADB
:102240004B4880ED140A80ED250A80ED150A80EDDB
:10225000220A80ED210A80ED200A9FED461ADFED6B
:10226000461A9FED462A80ED1A0A80ED1B0A80ED82
:102270001C0A80ED1D0A80ED1E0A80ED1F0ADFEDAD
:10228000400AC0ED230AC0ED240ADFED3E2A00F12A
:102290005C02C0ED262A002182EC031A503280F83D
:1022A0009C1080ED280A80ED390A80ED290A80ED26
:1022B000360A80ED350A80ED340AC0ED370AC0EDEC
:1022C000380AC0ED3A2A82EC031A503280F8EC103A
:1022D00080ED3C0A80ED4D0A80ED3D0A80ED4A0A12
:1022E00080ED490A80ED480AC0ED4B0AC0ED4C0A6A
:1022F000C0ED4E2A82EC031A503280F83C1180ED7A
:10230000500A80ED610A80ED510A80ED5E0A80ED91
:102310005D0A80ED5C0AC0ED5F0AC0ED600AC0EDA9
:10232000622A82EC031A80F88C1100F5C87080EDE7
:10233000000A80ED110A80ED010A80ED0E0A80EDA1
:102340000D0A80ED0C0A80ED030A80ED040A80ED91
:10235000050AC0ED0F0A9FED0C0AC0ED100A80EDD2
:10236000120A042180F84C107047000000000000A1
:1023700014930020006015450000704200004842A0
:102380000000C842CDCC4C3DCDCCCC3D2DE9F04138
:1023900004462DED088B90F84C00DFED7D9A042863
:1023A00007D060B1022811D0012816D003281BD015
:1023B00081E0C4ED119ABDEC088BBDE8F08194ED8D
:1023C000039AD4ED048A94ED058A74E094ED099A99
:1023D000D4ED0A8A94ED0B8A6DE094ED069AD4ED63
:1023E000078A94ED088A66E06A4D286807F064F968
:1023F0000F4647EC100B06469FED67AB51EC100BF8
:1024000053EC1A2B07F000F89FED65BB53EC1B2B28
:1024100007F0A2F906F012FF09EE100A686807F04B
:102420004BF953EC1A2B06F0EFFF53EC1B2B07F084
:1024300093F906F003FF08EE900AA86807F03CF94C
:1024400053EC1A2B06F0E0FF53EC1B2B07F084F93A
:1024500006F0F4FE47EC106B08EE100A53EC1A2B52
:1024600051EC100B06F0D0FF9FED4F1B53EC112BDE
:1024700007F072F906F0E2FEE060686807F01CF908
:1024800053EC1A2B06F0C0FF9FED49BB53EC1B2BFE
:1024900007F062F906F0D2FE2061A86807F00CF997
:1024A00053EC1A2B06F0B0FF53EC1B2B07F054F93A
:1024B00006F0C4FE606194ED0C0A84ED0D0A94ED03
:1024C000010AD4ED000A30EE600A84ED0C0AD4ED66
:1024D0000F0AB0EEC01AB4EEE01AF1EE10FA04D80A
:1024E000D4ED0E0A30EE800A03E094ED0E0A30EED1
:1024F000200A314984ED0E0A94ED040AB0EEC00AB8
:1025000010EE100A884201DCC4ED0E9A206C07F030
:1025100041FB94ED0E0A41EC1A0BB0EEC00A10EE2E
:10252000100A07F037FB53EC1A2B07F049FA9FED1E
:10253000231B53EC112B07F00DFA03D294ED100A74
:1025400084ED0E0AD4ED0C0A94ED0E1A1D4920EE0E
:10255000890A1E4A08EE810A94ED0D1A70EEC10A2E
:102560009FED191A08EE200ADFED190A84ED110A11
:1025700094F84C0010EE100A884206DC606C904221
:102580007FF619AFC4ED110A15E784ED111AF5E7CE
:1025900000000000F49400200000000000FEAF40A6
:1025A0000000000000005940000000000070A7403B
:1025B0000000000000407F40BD378635000000006D
:1025C0000000000000409C4500409C4500409CC528
:1025D00000409CC520499FED210A9FED211A91F8EA
:1025E0004C202048F0EE000A042A02D0D1ED111A46
:1025F00001E0D0ED021A81EE802A22EE200A90ED51
:10260000002A60EE010AB5EEC02AF1EE10FA01D2FE
:10261000F1EE600AD0ED012A9FED131A134832EE55
:10262000620A60EE811AB6EE001AF0EE400A11EE70
:10263000810A41EE810AC0ED150A72EE220AB0EE5F
:10264000602A51EE810A01EE812A80ED292AC0ED2F
:102650003D0A80ED510A7047A49400200000B44365
:10266000DA0F49400495002033333D421493002093
:102670002049C0EBC00201EB82019FED1F1A91EDD2
:10268000010A81ED020AB1F80D2052BA00EE102ABB
:10269000B8EE400A81ED010AB1F80F2052BA12B229
:1026A00000EE102A00EB80021648F8EEC00A00EB9C
:1026B000021080EE810A9FED111A81ED000AC0EE32
:1026C000010A9FED0F0A20EE800AF1EE040A80ED68
:1026D000000AB1F8111049BA00EE101AB8EE400A1B
:1026E00020EE200ADFED080A20EE200A80ED020A23
:1026F00070470000889200200000104200007042E5
:102700003333CB4014930020000080382DE9F04192
:10271000244800F025FF2449202081F84100214A67
:10272000012082F83500214D2149204B4C3DDFF836
:1027300080C010681E4E2F1FB8394FF00064ACF1F6
:10274000600C984201D92C6008E0B04201D93C608D
:1027500004E0604501D9CC6000E08C604FF08064FB
:10276000984201D92C6008E0B04201D93C6004E0F5
:10277000604501D9CC6000E08C604FF48004984241
:1027800001D92C6008E0B04201D93C6004E060450A
:1027900001D9CC6000E08C60002082F83400BDE8F4
:1027A000F08100008C040020B40300205864024033
:1027B000B860024001681823CAB2103AB2FBF3F2C3
:1027C000054B6FF30901032A9B5CC36500D9091D02
:1027D0008165084670470000049F000810B5014657
:1027E00000208B698A6A4FF0C07453B1B3F5005F63
:1027F00015D072B1012A0CD0022A0AD0032A09D1BD
:1028000004E01AB1012A06D0022A03D1C96AC9011B
:1028100000D5012010BDC96AA142FAD010BD002A1E
:10282000F7D0012AF2D0022AF3D0032AF3D010BD48
:1028300030B50468256825F4802525600468636048
:102840008368402B036803D099600068C26030BD84
:102850009A600068C16030BD704772B6FEE7000044
:1028600078B50024009490F83C20012A19D0012268
:1028700080F83C200A6807230568092A13D9EE6806
:102880000A3A02EB420293409E43EE600B788A685C
:102890000A3B03EB43039A400368DD682A43DA608E
:1028A00010E0022078BD2E6902EB420293409E4365
:1028B0002E610B788A6803EB43039A4003681D6915
:1028C0002A431A614A681F23072A13D205686E6BD0
:1028D000521E02EB820293409E436E630B790A887C
:1028E0005B1E92B203EB83039A4003685D6B2A433D
:1028F0005A6327E005680D2A12D22E6BD21F02EB15
:10290000820293409E432E630B790A88DB1F92B2AA
:1029100003EB83039A4003681D6B2A431A6311E09B
:10292000EE6A0D3A02EB820293409E43EE620B790F
:102930000A880D3B92B203EB83039A400368DD6A79
:102940002A43DA62164B0568144A9D4206D10D6887
:10295000122D03D1556845F48005556005689D42E8
:1029600018D10B68102B01D0112B13D1536843F4ED
:1029700000035360096810290CD10A490A4A096802
:10298000B1FBF2F101EB8101490000E0491E009129
:102990000029FBD180F83C40002078BD0023014095
:1029A000002001405800002040420F00704770474F
:1029B000704770B504004FF0000503D0206C00266E
:1029C00010B107E0012070BD204600F01DF86664DC
:1029D00084F83C60206CC00610D4206C20F4885031
:1029E00040F0020020642046FFF7BCFA6664206CC9
:1029F00020F0020040F00100206400E0012584F88E
:102A00003C60284670BD000070B586B006461421B3
:102A10006846FDF7B6FD1E493068884235D11D482D
:102A20000025016841F480610160006800F4806065
:102A3000059018481438016841F0200101600068D1
:102A4000694600F020000590782000900320CDE931
:102A50000105114800F008FF114C10482060800566
:102A6000C4E901050014C4E90350800060618000DE
:102A7000A0618011C4E907052046656200F040FEB0
:102A800008B1FFF7EAFEB463A66306B070BD0000AC
:102A90000022014044380240001402401064024009
:102AA0007001002018B50021009190F83C20012A07
:102AB00007D0012280F83C2002689368DB0702D02F
:102AC00011E0022018BD936843F0010393602E4A81
:102AD0002E4B1268B2FBF3F202EB420200E0521EF0
:102AE0000092002AFBD102689368DB0742D0036C96
:102AF00040F20164A34343F48073036453685B05AD
:102B000005D5036C23F4005343F480530364036C32
:102B1000DB0404D5436C23F00603436400E0416406
:102B200080F83C101A496FF022031360496800686E
:102B3000CA06184906D0884224D1816811F0405F46
:102B400013D01FE08842F8D0134A904203D1D1F845
:102B50000423D206F1D0114A904213D1D1F80413C4
:102B600001F01F011029E8D30CE0816841F0804199
:102B7000816007E0016C41F010010164416C41F09B
:102B800001014164002018BD5800002040420F00A0
:102B900000230140002001400021014000220140AB
:102BA000F8B5044600200E46009094F83C10012928
:102BB00007D0012184F83C1021688B68DB0702D024
:102BC00011E00220F8BD8B6843F001038B6040499F
:102BD000404B0968B1FBF3F101EB410100E0491EF4
:102BE00000910029FBD121688B68DB0503D58B6838
:102BF00023F480738B6021688B68DB075DD0236CC6
:102C000040F20165AB4343F480732364496849058E
:102C100005D5216C21F4005141F480512164216CCF
:102C2000C90404D5616C21F00601616400E06064B0
:102C300084F83C00A16B2948274DC863A16B284844
:102C40000864A16B2748C86421686FF022000860FF
:102C50002068416841F0806141602068816841F4EA
:102C6000807181602168134632464C31A06B00F0C0
:102C7000B1FD68681C49C006206806D0884224D18E
:102C8000816811F0405F13D01FE08842F8D0174AE6
:102C9000904203D1D1F80423D206F1D0144A9042D5
:102CA00013D1D1F8041301F01F011029E8D30CE06F
:102CB000816841F08041816007E0206C40F01000A5
:102CC0002064606C40F0010060640020F8BD0000EA
:102CD0005800002040420F0000230140D71E00088A
:102CE0005B1F0008451F0008002001400021014033
:102CF0000022014090F82020012A07D0022A05D0A6
:102D0000416A41F4802141620120704700684269B4
:102D10000A43426100207047F0B590F820500468E3
:102D2000A468012D05D0022D03D0416A41F4802111
:102D30004DE014F0406F01D1E50045D5C4F30164C6
:102D40000125A5401D608D684FF4C0739DB1CE680C
:102D500035434E6845EAC605066803EB0417F5518E
:102D60004FF4C275076805EB04150E697E51097DA5
:102D7000012905D009E00E88CD6845EA4655EBE704
:102D800001684E5946F480764E511179D2F80550BB
:102D90004FF4C67641EA0521056806EB0416A951F1
:102DA0001178D2F801204FF4C47541EA022102687B
:102DB00005EB04155151006803EB0411425842F031
:102DC000010242500020F0BD416A41F4001141620D
:102DD0000120F0BD10B590F82020012A07D0022A6A
:102DE00005D0416A41F480214162012010BD3B4879
:102DF000D0F8002242F00102C0F80022D0F80022F0
:102E000022F47C52C0F80022D0F800224B6A42EA39
:102E10000322C0F800220A7D02F01F0301229A401B
:102E2000D0F81C329343C0F81C32CB69B3B9D0F848
:102E30000C329343C0F80C328C894B6864F31F4307
:102E40004C6900EBC404C4F840320C890B6864F38D
:102E50001F434C6900EBC404C4F84432CB69012B16
:102E600016D1D0F80C321343C0F80C320C884B68E2
:102E700064F31F434C6900EBC404C4F840320C896E
:102E8000CB6864F31F434C6900EBC404C4F84432BC
:102E90008B69002BD0F804320ED01343C0F80432F3
:102EA0000B69002BD0F8143208D01343C0F8143249
:102EB000096A012904D008E09343EFE79343F5E75B
:102EC000D0F81C121143C0F81C12D0F8001221F0E7
:102ED0000101C0F80012002010BD00000064004095
:102EE000704700000246002092F82030012B01D0EC
:102EF000022B05D1106821B1D0F8100000F00300BA
:102F00007047C068FAE770B590F82040012C05D0F2
:102F1000022C03D0416A41F4802128E0046809B3FF
:102F20002469A40720D04FF4D874056804EB011479
:102F30002D5915F00405956005682D591AD0ED0836
:102F4000556005682C5904F00204D4604FF4DA741B
:102F5000056804EB01142E5906F00F06082E0CD359
:102F600008250DE0E468DCE7416A41F400114162A4
:102F7000012070BD6D0D1560E3E72D5905F00F05BB
:102F8000156105682D59C5F30725956105682C590C
:102F9000240C54614FF4DC72046802EB0112A45853
:102FA0001C700468A458240A5C700468A458240C9B
:102FB0009C700468A258120EDA704FF4DE72046836
:102FC00002EB0112A4581C710468A458240A5C7115
:102FD0000468A458240C9C710468A258120EDA717B
:102FE000006829B1016941F020010161002070BD34
:102FF000C16841F02001C160F8E70246002092F864
:103000002010012901D002290CD111688A685201CF
:1030100000D501208A68120100D5401C8968C900CA
:1030200000D5401C70472DE9F05F0546006800247C
:103030004669D0F804908768D0F80CB0D0F810A09A
:10304000D0F81880F10748D0F90714D00121816029
:10305000B80703D5284600F022FA0CE0780702D51D
:103060004FF4006407E0380702D54FF4805402E0C3
:10307000284600F013FAF80516D529684FF4807039
:103080008860B80503D5284600F00BFA0CE07805F7
:1030900002D544F4005407E0380502D544F48044D6
:1030A00002E0284600F0FCF9F80316D529684FF431
:1030B00080308860B80303D5284600F0F4F90CE0AE
:1030C000780302D544F4004407E0380302D544F401
:1030D000803402E0284600F0E5F9300707D55FEAC2
:1030E000CB6004D52968102044F40074C8607007D0
:1030F0004FF0080707D55FEA0B7004D52868C76052
:10310000284600F059F9B00706D52868C06880073E
:1031100002D0284600F052F9700607D55FEACA606F
:1031200004D52968102044F480640861B00607D5EE
:103130005FEA0A7004D528680761284600F07EF926
:10314000F00606D528680069800702D0284600F0FE
:1031500076F9B00308D55FEAC96005D52968102063
:103160004860284600F06CF9F00307D55FEA097063
:1031700004D528684760284600F096F9300446D503
:103180005FEA497040D5F00504D55FEAC87001D008
:1031900044F00104B00504D55FEA887001D544F01D
:1031A0000204700504D55FEA487001D544F00404B8
:1031B000300529D518F0700F26D008F0700040288F
:1031C00015D006DC102809D020280AD0302816D1C6
:1031D0000AE050280ED0602811D10EE044F0080417
:1031E0000DE044F010040AE044F0200407E044F04D
:1031F000400404E044F0800401E044F48074286852
:10320000816921F070018161296804204860002CE7
:1032100005D0686A204368622846FFF761FEBDE872
:10322000F09F70B5040003D094F8200010B104E0C2
:10323000012070BD204600F081F82068016841F04F
:103240000101016000F012FC0546052604E000F0D3
:103250000DFC401B0A2811D820684068C007F6D032
:103260002068016821F00201016000F0FFFB0546C3
:103270000BE000F0FBFB401B0A2806D9606A40F413
:103280000030606284F82060D2E7206840688007E0
:10329000EFD4207E0128206801683DD021F0800114
:1032A0000160607E01282068016838D021F040016B
:1032B0000160A07E01282068016833D021F0200140
:1032C0000160E07E0128206801682ED041F01001E5
:1032D0000160207F01282068016829D021F00801C1
:1032E0000160607F01282068016824D021F004017A
:1032F0000160D4E902010843D4E9041211430843F0
:103300006168491E08432168C8610020606201208D
:1033100084F82000002070BD41F08001C0E741F03A
:103320004001C5E741F02001CAE721F01001CFE7D5
:1033300041F00801D4E741F00401D9E710B586B0A7
:10334000044614216846FDF71CF918492068884294
:1033500029D117480021026842F00072026000681B
:1033600000F00070059012481038026842F0010227
:103370000260006800F0010005904FF4C05000901A
:103380000220CDE901010320039009200490694641
:10339000084800F069FA00220521142000F0FCFC26
:1033A000142000F0EBFC06B010BD000000640040EB
:1033B00040380240000002407047000030B589B03C
:1033C00007A96846FEF706FF082815D1009B1A4A90
:1033D000A3F5007307A9013B10D0012B17D0022BD6
:1033E0001FD0032B08D10023D518CC5C5B1CDBB2AB
:1033F00085F87D408342F7D309B030BDCC5CD51849
:103400005B1CDBB285F829408342F7D3F4E7002345
:10341000D518CC5C5B1CDBB285F845408342F7D302
:10342000EAE70023D518CC5C5B1CDBB285F8614071
:103430008342F7D3E0E7000088920020704770478E
:103440007047000070B5044690F82000012804D0B1
:10345000606A40F40020606218E0022084F82000D6
:103460002068016821F00101016000F0FFFA0546C3
:103470000EE000BF00F0FAFA401B0A2808D9606A83
:1034800040F400306062052084F82000012070BD07
:1034900020684068C007EDD1606270BD704770471A
:1034A000704770477047704770472DE9F0410446F8
:1034B000876D00F0DBFA064694F8350000250228F7
:1034C00006D08020606584F834500120BDE8F0818A
:1034D0002068016821F0160101602068416921F02F
:1034E00080014161206C08B9A06C20B1206801689E
:1034F00021F0080101602068016821F001010160EC
:103500000CE000F0B3FA801B052807D92020606585
:10351000032084F8350084F83450D7E72068006829
:10352000C007EED194F85C103F208840B8600120BD
:1035300084F8350084F834500020C7E790F835103F
:10354000022903D08021416501207047052180F8C0
:1035500035100068016821F001010160002070470A
:103560002DE9F84304464FF00009CDF80090634878
:103570004FF41651A56D0068B0FBF1F72E6894F872
:103580005C10082000FA01F131420FD021680A686E
:1035900052070BD50A6822F004020A6094F85C1006
:1035A0008840A860606D40F00100606594F85C1090
:1035B0004FF0010808FA01F0304208D0216849694B
:1035C000090604D5A860606D40F00200606594F8BB
:1035D0005C1004208840304208D0216809688907BF
:1035E00004D5A860606D40F00400606594F85C103C
:1035F00010208840304218D021680968090714D586
:10360000A86020680168490304D50068000308D554
:10361000A16C07E00168C90503D4016821F0080125
:103620000160216C09B12046884794F85C10202085
:103630008840304231D021680968C9062DD5A8607C
:1036400094F8350005282068016806D0490347D55D
:10365000006800031DD4616C1CE021F016010160BC
:103660002068416921F080014161206C08B9A06C9B
:1036700020B12068016821F00801016094F85C1015
:103680003F208840A86084F8358084F83490216D0C
:103690001FE0E16B09B120468847606D00282BD000
:1036A000606DC00714D0052084F8350020680168DB
:1036B00021F0010101600098401C0090B84203D83D
:1036C00020680068C007F6D184F8358084F834900B
:1036D000E16C002910D001B02046BDE8F043084756
:1036E0000168C905D5D4016821F01001016084F892
:1036F000358084F83490CCE7BDE8F883580000208A
:103700002DE9F041044600F0B1F906465CB1022013
:1037100084F83500002584F834502068016821F0D1
:10372000010101600DE00120BDE8F08100F09EF98B
:10373000801B052805D920206065032084F835000A
:10374000F2E720680068C007F0D1226811682048BD
:103750000140D4E901031843D4E903363343184345
:1037600063691843A3691843E3691843236A18433C
:103770000843616A042903D1D4E90B1319430843B0
:10378000106020684069666A20F0070130460E43E9
:10379000012704280CD1A06A0643E06A40B1204604
:1037A000FFF71CF820B14020606584F83570BAE757
:1037B000206846612046FEF7FDFF94F85C203F211B
:1037C00091408160656584F835700020ACE70000A9
:1037D0003F8010F02DE9F0410446866D90F83400EA
:1037E000002501280DD0012084F8340094F83570AC
:1037F0000020012F07D084F8340002252846BDE8B8
:10380000F0810220FBE7022784F8357060652046CE
:10381000FFF70EF894F85C103F208840B0602068F5
:10382000016841F016010160206C20B12068016838
:1038300041F0080101602068016841F00101016068
:10384000DCE7000070B5044600F010F90546601C86
:1038500002D004480078044400F008F9401BA0425C
:10386000FAD370BD4C0000202DE9F84FDFF8BCA161
:103870000022012503264FF00F090AF1040BAAF1DB
:10388000040E00BF0B6805FA02F42340A34270D176
:103890000F7907F00307012F01D0022F16D1876897
:1038A0004FEA420806FA08FC27EA0C07D1F80CC0D8
:1038B0000CFA08FC4CEA070CC0F808C04768A7439C
:1038C0000C79C4F3001494403C4344600C79E44305
:1038D000A4070AD0C4684FEA420C06FA0CF7BC43AE
:1038E0008F6807FA0CF72743C7600C7904F00304CC
:1038F000022C12D1D40800EB840CDCF820405707CE
:10390000FF0E09FA07F824EA0804D1F8108008FA33
:1039100007F848EA0408CCF8208004684FEA420C13
:1039200006FA0CF7BC430F7907F0030707FA0CF708
:10393000274307604C6814F4403F70D03C4C276824
:1039400047F480472760246822F0030704F480448A
:103950000094384C07EB040CDCF8084897074FEA52
:10396000177809FA08F7BC43334FB84202D1002751
:1039700024E054E0314FB84201D101271EE0304F1E
:10398000B84201D1022719E02E4FB84201D10327D6
:1039900014E02D4FB84201D104270FE02B4FB8425D
:1039A00001D105270AE02A4FB84201D1062705E0D8
:1039B000284FB84201D1072700E0082707FA08F787
:1039C0002743CCF80878DAF800405746D1F804C00D
:1039D0009C435FEACC2C00D51C433C60DBF80040E4
:1039E0005F46D1F804C09C435FEA8C2C00D51C4391
:1039F0003C60DEF800407746D1F804C09C435FEAA3
:103A00008C3C00D51C433C60084F083F3C68D1F813
:103A100004C09C435FEACC3C00D51C433C60521C74
:103A2000102AFFF42FAFBDE8F88F0000083C0140DA
:103A300044380240003001400000024000040240CF
:103A400000080240000C0240001002400014024036
:103A500000180240001C02400069084000D001200C
:103A600070470AB1816170470904FBE7014880682B
:103A7000704700004C00002070B5040025D094F879
:103A80003D00002520B984F83C50204600F0B8F8ED
:103A9000242084F83D002068016821F001010160C4
:103AA0002068016841F4004101602068016821F448
:103AB0000041016000F05CFA4D4A6168914201D812
:103AC0004C4900E04C49884201D2012070BD4B496D
:103AD0002368B0FBF1F15E6826F03F060E435E609E
:103AE0006368934206D94FF4967359434FF47A733F
:103AF000B1FBF3F12368491C1E6A26F03F063143EF
:103B000019626168914210D84900401EB0FBF1F281
:103B1000521CC2F30B02042A01D2042022E0B0FBA3
:103B2000F1F0401CC0F30B001CE0A268F2B301EB03
:103B3000C10303EB0116431EB3FBF6F35B1C43F416
:103B400080431B0549D092B301EBC10202EB011186
:103B5000401EB0FBF1F0401CC0F30B0040F480406D
:103B600040F400402168CA694CF6FF739A43104341
:103B7000C861D4E9071001432068026822F0C0023E
:103B800011430160D4E9030101432068826848F2CF
:103B9000FF339A4311438160D4E90501084321684A
:103BA000CA6822F0FF021043C86001E00EE016E090
:103BB0002068016841F0010101602564202084F83B
:103BC0003D00256384F83E50002070BD01EB4106A6
:103BD000431EB3FBF6F35B1CB3E70120C2E701EB26
:103BE0004101401EB0FBF1F0401CC0F30B00B7E7F1
:103BF000A086010080841E0000093D0040420F00A5
:103C000010B586B0044614216846FCF7BAFC134987
:103C10002068884220D112480021026842F0020246
:103C20000260006800F002000590C02000901220A1
:103C3000CDE901010320039004200490694609485E
:103C4000FFF712FE06481030016841F400110160D0
:103C5000006800F40010059006B010BD005400404C
:103C60003038024000040240024881680278114462
:103C7000816070474C0000200B4810B5016841F48A
:103C800000710160016841F480610160016841F4E4
:103C900080710160032000F09FF80F2000F006F80B
:103CA00000F050F8002010BD003C024030B5054641
:103CB0001F4887B00024016841F0200101600068BE
:103CC00006A900F02000009001A800F031F9049846
:103CD000A8B100F04DF940001649174AB0FBF1F1C8
:103CE0001648491E026040F2E732C0E90324C0E9E9
:103CF0000114846100F0B6FB040003D015E000F06D
:103D000037F9E9E70D4800F0DBFB04000DD137205F
:103D100000F034F8102D07D200222946372000F099
:103D20003BF80748056000E0012407B0204630BD9D
:103D30004038024040420F00001400404C05002073
:103D4000500000200C4882B0016841F480410160BD
:103D5000006800F4804000900748001F016841F0AF
:103D6000805101600068002200F0805000900F2117
:103D7000901E02B000F010B844380240002809DB61
:103D800000F01F02012191404009800000F1E02075
:103D9000C0F8001170470000F0B40E4B1B680C46D1
:103DA000C3F30223C3F10705042D00D90425191D0F
:103DB000072901D2002300E0DB1E012606FA05F1E7
:103DC000491E214099409E40761E16403143F0BC6A
:103DD00003F00DBD0CED00E0064900F00702086895
:103DE0004FF6FF03184040EA0220034A10430860E0
:103DF000704700000CED00E00000FA052DE9F047E7
:103E00000E46050065D0DFF81481D8F80000F7B23F
:103E100000F00700B04207D288F80070D8F8000020
:103E200000F00700B04254D128683D4C810712D5FC
:103E3000400703D5206840F4E05020602878000750
:103E400003D5206840F4604020602068A96820F015
:103E5000F000084320602878C0072DD030496868FA
:103E60000839012812D0022813D0032811D009687C
:103E7000890700292DDA216821F00301014321601F
:103E8000FFF7F4FD814641F2883A0EE009688903A4
:103E9000EFE709688901ECE7FFF7E8FDA0EB09010E
:103EA000514502D90320BDE8F0872068696800F019
:103EB0000C00B0EB810FEFD1D8F80010404601F0B4
:103EC0000701B14207D90770006800F00700B0424F
:103ED00001D00120E7E72878400705D52068E96888
:103EE00020F4E050084320602878000706D52068B9
:103EF000296920F4604040EAC100206000F058F8D1
:103F00002168084AC1F30311515CC84006490860A2
:103F100006480068FFF7CAFE0020C4E7003C0240E4
:103F2000083802400C9F0008580000205000002074
:103F30000F2202600C4A136803F003034360136806
:103F400003F0F0038360136803F4E053C360126866
:103F50004FF4E05303EAD20202610448006800F023
:103F6000070008607047000008380240003C02402B
:103F70000448054900680968044AC1F38221515C7C
:103F8000C840704758000020083802401C9F0008B5
:103F90000448054900680968044AC1F34231515C8C
:103FA000C840704758000020083802401C9F000895
:103FB000154810B5006810F00C02144813D04110D9
:103FC000042A0FD0082A0ED10F4C241F2268236820
:103FD00002F03F025B0207D52068C0F38810A0FB07
:103FE000010106E0084610BD2168C1F38811A1FB5C
:103FF00000010023FCF7EEF92168C1F30141491CDF
:104000004900B0FBF1F010BD083802400024F40074
:104010002DE9F84F04006ED02078DFF84C93C007EC
:10402000A9F104054AD009F104000168C1F3810136
:10403000012908D00068C0F3810002280AD1D9F80C
:104040000000400206D52868800337D56068002844
:10405000E1D033E06068B0F5803F10D0B0F5A02F1C
:10406000286810D020F480302860286820F4802050
:1040700028606068A8B1FFF7F9FC06460DE02868E3
:1040800040F48030F4E740F480202860F7E700BF78
:10409000FFF7ECFC801B642873D828688003F7D5F1
:1040A0000CE0FFF7E3FC064605E000BFFFF7DEFC8F
:1040B000801B6428F0D828688003F7D42078DFF8C4
:1040C000AC8280074FF0000A3ED5A748001D01686A
:1040D00011F00C0F08D00068C0F3810002280BD14A
:1040E000D9F80000400207D42868800716D5E06898
:1040F000012800D112E033E1E068B8B10120C8F82E
:104100000000FFF7B3FC064605E000BFFFF7AEFC7A
:10411000801B0228C0D828688007F7D52868216945
:1041200020F0F80040EAC10028600DE0C8F800A0C7
:10413000FFF79CFC064604E0FFF798FC801B022872
:104140001FD828688007F7D42078000722D5864F2B
:1041500087486169703771B101210160FFF786FC02
:10416000064604E0FFF782FC801B022809D8386865
:104170008007F7D50EE0C0F800A0FFF777FC0646F1
:1041800005E082E0FFF772FC801B02287DD83868CA
:104190008007F7D42078400768D5DFF8CCB1002736
:1041A0000BF13C0BDBF80000C0000BD4DBF8001077
:1041B00041F08051CBF80010DBF80000012700F03F
:1041C000805000906B4E3068C00510D4306840F4C9
:1041D00080703060FFF74AFC009005E0FFF746FC76
:1041E0000099401A022850D83068C005F6D55E4EB6
:1041F000A0686C3601280FD00528306810D020F058
:1042000001003060306820F004003060A068B8B170
:10421000FFF72CFC00900FE0306840F00100F4E75D
:1042200040F004003060F7E7FFF720FC0099411AE6
:1042300041F28830814266D830688007F4D50EE0BC
:10424000FFF714FC009007E0FFF710FC0099411AFB
:1042500041F28830814256D830688007F4D42FB1BB
:10426000DBF8001021F08051CBF80010A069C8B332
:104270003D49091D0968C1F3810102294AD002287C
:10428000504607D0C8F8600000E03CE0FFF7EEFBC6
:1042900004463BE04746C8F86000FFF7E7FB0646E8
:1042A00005E000BFFFF7E2FB801B02282BD828683F
:1042B0008001F7D4D4E907010843A16A2E4A4908CE
:1042C00002EB0141626A41EA8211084394F82C1022
:1042D00040EA0161C9F8001001203866FFF7C6FB0B
:1042E000044606E03EE000BFFFF7C0FB001B0228CB
:1042F00009D828688001F7D534E000BFFFF7B6FB86
:10430000001B022802D90320BDE8F88F286880012D
:10431000F4D427E00128F7D0D9F80000E26900F4CE
:10432000800191421CD1226A00F03F01914217D1D5
:1043300047F6C071626A0140B1EB821F10D1A26AD8
:104340004FF0FF3300F4403103EB5202B1EB024F68
:1043500006D194F82C1000F07060B0EB016F01D022
:104360000120D1E70020CFE7043802400000474297
:10437000800E4742007000400000FFFF704770470A
:1043800010B590F83C20012A22D0012280F83C2070
:10439000CA688C6822F4407222434C6822F480621E
:1043A00022430C6822F4006222430C6922F48052FA
:1043B00022434C6922F400522243C969002322F4AB
:1043C00080420A4301684A6480F83C30002010BDF6
:1043D000022010BD70B590F83C20012A32D0012493
:1043E00080F83C40022280F83D2003685A689D68AE
:1043F00022F070060A6832435A60134B02689A42F0
:1044000014D0B2F1804F11D0104B9A420ED0104B05
:104410009A420BD00F4B9A4208D00F4B9A4205D0CC
:104420000E4B9A4202D00E4B9A4204D1496825F0B5
:1044300080031943916080F83D40002180F83C10D2
:10444000084670BD022070BD00000140000400401D
:1044500000080040000C0040000401400040014002
:104460000018004010B5040003D094F83D0010B1CE
:1044700007E0012010BD002084F83C00204600F039
:104480001EF8022084F83D00211D206802F074FB14
:10449000012084F8460084F83E0084F83F0084F848
:1044A000400084F8410084F8420084F8430084F816
:1044B000440084F8450084F83D00002010BD70479A
:1044C00090F83D10012901D001207047022180F8A9
:1044D0003D100168CA6842F00102CA6000681149D3
:1044E000884214D0B0F1804F11D00F4988420ED0CD
:1044F0000E4988420BD00E49884208D00D498842A7
:1045000005D00D49884202D00C49884204D1816807
:1045100001F00701062903D0016841F001010160A3
:1045200000207047000001400004004000080040E7
:10453000000C004000040140004001400018004011
:1045400070472DE9F04104460068C66805694FF0E0
:104550000007A90713D5B10711D5F91E0161012084
:104560002077206880698007204602D0FFF7E8FFA7
:1045700004E000F015F9204600F0E6F92777680717
:1045800016D5700714D521686FF004000861022069
:1045900020772068806910F4407F204602D0FFF722
:1045A000CFFF04E000F0FCF8204600F0CDF92777BB
:1045B000280715D5300713D521686FF0080008616A
:1045C000042020772068C0698007204602D0FFF7CA
:1045D000B7FF04E000F0E4F8204600F0B5F92777D3
:1045E000E80616D5F00614D521686FF010000861B2
:1045F000082020772068C06910F4407F204602D050
:10460000FFF79EFF04E000F0CBF8204600F09CF995
:104610002777E80708D0F00706D021686FF001007F
:104620000861204600F0F6F9280608D5300606D5C0
:1046300021686FF0800008612046FFF79FFE680642
:1046400008D5700606D521686FF040000861204645
:1046500000F0EAF9A8060AD5B00608D521686FF07F
:10466000200008612046BDE8F041FFF788BEBDE8A4
:10467000F0810000F0B587B0044614216846FBF7CE
:1046800080FF3F4A216800243E48022501269142CE
:104690000FD1016841F0100101600068694600F027
:1046A000100005904FF4D4400090CDE901543648F5
:1046B00038E0364FB1F1804F25D0354B354A99421D
:1046C00036D1016841F001010160016801F001018A
:1046D0000591016841F0020101600068694600F03F
:1046E00002000590C0200090CDE901541046CDE9AC
:1046F0000345FFF7B9F80096CDE9015469463846FD
:10470000CDE9034510E0016841F002010160006855
:10471000694600F0020005904FF440600090CDE93A
:1047200001543846CDE90346FFF79EF807B0F0BDC7
:10473000194B99420FD1016841F0010101600068F5
:104740000095CDE9015400F00100CDE9045069461F
:1047500003941046E8E7114A9142E7D1016841F01D
:10476000020101600068694600F002000590101423
:104770000090CDE901540920CDE903403846D3E744
:1047800000000140303802400010024000040240A6
:104790000004004000000240000C004000180040EF
:1047A000704770B5044690F83C0000260D4601287D
:1047B0000FD0012084F83C006AB1042A1DD0082AD9
:1047C0002FD00C2A3FD00126002084F83C00304630
:1047D00070BD022070BD206802F048FA206881692F
:1047E00041F0080181612068816921F00401816143
:1047F000206881692A69114311E0206802F066FA95
:104800002068816941F4006181612068816921F437
:1048100080618161206881692A6941EA02218161A0
:10482000D2E7206802F088FA2068C16941F00801E7
:10483000C1612068C16921F00401C1612068C169BA
:104840002A69114311E0206802F0AAFA2068C169C0
:1048500041F40061C1612068C16921F48061C161D6
:104860002068C1692A6941EA0221C161ACE710B53B
:10487000040003D094F83D0010B107E0012010BD02
:10488000002084F83C00204600F01EF8022084F846
:104890003D00211D206802F06FF9012084F84600D8
:1048A00084F83E0084F83F0084F8400084F841001A
:1048B00084F8420084F8430084F8440084F84500FA
:1048C00084F83D00002010BD08B5016819488142F8
:1048D00001D1194810E01848001FB1F1804F0BD0EA
:1048E000164A914210D1016841F00201016000684E
:1048F00000F00200009008BD016841F00101016074
:10490000006800F00100F5E70D4A914207D1016807
:1049100041F008010160006800F00800EAE7094A78
:104920009142E8D1016841F040010160006800F067
:104930004000DFE70000014044380240000400402E
:10494000000C0040001800407047000010B50446FD
:10495000022249B104290ED0082913D094F841004D
:10496000012816D0012010BD94F83E000128F9D18D
:1049700084F83E200FE094F83F000128F2D184F83B
:104980003F2008E094F840000128EBD184F8402053
:1049900001E084F841200122206802F059F916490B
:1049A0002068164A884201D0904203D1436C43F4F8
:1049B000004343642068884213D0B0F1804F10D088
:1049C0000F4988420DD00F4988420AD00E498842CB
:1049D00007D0904205D00D49884202D00C49884248
:1049E00004D1816801F00701062903D0016841F074
:1049F00001010160002010BD0000014000040140E1
:104A00000004004000080040000C0040004001404D
:104A10000018004000680349884201D1FFF724B91B
:104A20007047000000140040704770477047000056
:104A3000F8B5016804460868CA684B6910F00F0FA2
:104A40004FF0000559D003F0010602F49077374388
:104A500065D0C10705D0D10503D5616C41F00101D6
:104A60006164410705D5D90703D0616C41F00201AB
:104A70006164810705D5D90703D0616C41F0040159
:104A80006164010707D502F02001314303D0616C56
:104A900041F008016164616C00293AD0800604D5B8
:104AA000900602D5204602F02BFA20684069616C1E
:104AB000C0F38010090700D460B3204602F0EBF980
:104AC00020684069400621D52068143050E8001F56
:104AD00021F0400140E80012002AF5D1E06BA8B1B6
:104AE0006E490165E06BFEF729FD002811D0E06BEF
:104AF000016D01B0BDE8F040084783060FD593066D
:104B00000DD52046BDE8F84002F0FAB92046FFF77F
:104B10008DFFF8BD2046FFF789FF6564F8BD266B61
:104B20002023012E7DD1C6067BD5D60679D508680F
:104B30004868009048694FF00206400641D5E16B95
:104B4000086840680004000CE8D0A28D8242E5D9D4
:104B5000E085C869B0F5807F2DD020680C3050E822
:104B6000001F21F4807140E80012002AF5D120686E
:104B7000143050E8001F21F0010140E80012002A23
:104B8000F5D12068143050E8001F21F0400140E8C2
:104B90000012002AF5D184F84230256320680C30D9
:104BA00050E8001F21F0100140E80012002AF5D162
:104BB000E06BFEF77AFC6663A08DE18D401A81B24E
:104BC0002AE0A08DE18D401A81B2E08D0028A5D0A9
:104BD0000029A3D022680C3252E8000F20F4907014
:104BE00042E80007002FF5D12068143050E8002F6C
:104BF00022F0010240E80027002FF5D184F842306E
:104C0000256320680C3050E8002F22F0100240E8A5
:104C10000023002BF5D166632046FFF706FFF8BDA1
:104C2000FFE705062BD5150629D594F84100212864
:104C3000F5D1A068B0F5805F01D12069B0B1206ADC
:104C4000411C2162216800784860E08C401E00040D
:104C5000000CE084E3D12068C16821F08001C160CC
:104C60002068C16841F04001C160D8E7206A00882F
:104C7000C0F308004860206A801C2062E5E7400617
:104C8000CDD55006CBD5CA68204622F04002CA6076
:104C900084F8413000F098F9C1E70000F16D000898
:104CA00070B5040004D094F84100002510B106E06E
:104CB000012070BD84F84050204600F023F82420E5
:104CC00084F841002068C16821F40051C160204689
:104CD00002F078F92068016921F4904101612068AF
:104CE000416921F02A0141612068C16841F4005105
:104CF000C1606564202084F8410084F84200656347
:104D0000002070BD2DE9F04786B0064614216846A4
:104D1000FBF737FC5548DFF8508102223568002444
:104D200052491438032397064FF0070C4FF04009FF
:104D30004FF4806A454533D10D6845F010050D608C
:104D4000096801F010010591016841F0010101605D
:104D50000068694600F00100059058028DE81500D2
:104D6000CDE9033C4248FEF77FFD434D4148C5E98C
:104D70000294C5E904A4AC61EC612C626C62C5E9E3
:104D800000072846FEF7BCFC08B1FDF766FDB563D9
:104D9000002207212520AE63FEF7FEFF252039E023
:104DA000DFF8D88045453AD13049091F0D6845F4F0
:104DB00000350D60096801F400310591016841F08A
:104DC000080101600068694600F008000590602055
:104DD0008DE81500CDE9033C2948FEF745FD264D39
:104DE00028486035C5E90294C5E904A4AC61EC61CA
:104DF0002C626C62C5E900072846FEF781FC08B109
:104E0000FDF72BFDB563002207212620AE63FEF7D8
:104E1000C3FF2620FEF7B2FF06B0BDE8F0871A4EAA
:104E2000B542F9D10D6845F020050D60096801F023
:104E300020010591016841F00401016000686946A4
:104E400000F004000590C0208DE815000820CDE991
:104E500003300E48FEF708FD002207214720FEF729
:104E60009BFF4720D6E70000001001404438024075
:104E700000000240B86402408C040020004400405E
:104E8000000C0240A06002400014014000080240F3
:104E900090F84230202B01D00220704721B11AB186
:104EA0000023036302F014B90120704770472DE915
:104EB000F843044690F84100984616460D462028CF
:104EC00002D00220BDE8F88385B17EB10020606485
:104ED000212084F84100FEF7C9FDA6848146E684BE
:104EE000A0682027B0F5805F02D003E00120E9E749
:104EF000206910B12E4600250EE000260CE080212E
:104F0000204602F000F9A8B9C6B116F8010B2168D5
:104F10004860E08C401EE084E08C4B464FF000027D
:104F2000CDF800800028EAD14FF04001204602F081
:104F3000EAF840B184F841700320C3E735F8020B6A
:104F4000C0F30800E3E784F841700020BAE70000EE
:104F500070B5044690F84100202801D0022070BDB1
:104F600049B342B32162A284E28400206064212319
:104F700084F84130A56B114BEB63A56B104B2B6490
:104F8000A56B104BEB64A36B1865256813462A1DAF
:104F9000A06BFEF71FFC21686FF0400008602068DE
:104FA000143050E8001F41F0800140E80012002A50
:104FB000F5D1002070BD012070BD00004B6E0008CF
:104FC0008D6E0008016E000870477047FEE7000014
:104FD0007FB500212548009101910291224A039159
:104FE000026001244FF480320461C0E9012101769E
:104FF00080F820101E4AC0E90A210425C561C1605D
:1050000080F830104461FDF7D4FC08B1FDF725FCB1
:105010000920CDE90004694614480294FDF720FCFC
:1050200008B1FDF71AFC0E2000900220019069469D
:105030000E48FDF715FC08B1FDF70FFC0F2000909E
:105040000320019069460948FDF70AFC08B1FDF705
:1050500004FC0095694605480195FDF701FC002810
:1050600001D0FDF7FAFB7FBD00220140280100209E
:105070000100000F0F4810B50D4901600321416088
:1050800000214FF400228160C0E903124FF4401266
:105090004261017641768176C17601774177FEF7EC
:1050A000C0F8002803D0BDE81040FDF7D6BB10BD06
:1050B00000640040D00100200D4808B5016841F4AB
:1050C00000110160016801F400110091016841F4D0
:1050D000800101600068002200F48000009005213A
:1050E0004620FEF759FEBDE808404620FEF746BEC2
:1050F0003038024010B5424A0121102002F0EEFB88
:10510000404C3F4A0121A0631832102002F0E6FB18
:105110003B4AE06330320121202002F0DFFB384AB5
:10512000206448320121102002F0D8FB344A606428
:1051300060320121102002F0D1FBA064324A00212C
:10514000324802F0F7FB304A206024320021304818
:1051500002F0F0FB2C4A6060483200212D4802F03A
:10516000E9FB294AA0606C3200212B4802F0E2FBE7
:10517000254AE06090320021284802F0DBFB224AF9
:105180002061B4320021264802F0D4FB1E4A60613F
:10519000D8320021234802F0CDFB194AA061FC3A25
:1051A0000021214802F0C6FB154AE061D83A0021EF
:1051B0001E4802F0BFFB124A2062B43A00211C488C
:1051C00002F0B8FB0E4A6062903A0021194802F0E2
:1051D000B1FB0B4AA0626C3A0021174802F0AAFB0F
:1051E000074AE062483A0021144802F0A3FB044A4F
:1051F0002063243A0021124802F09CFB606310BD3A
:105200008C9E000800000020949C0008615C00084F
:10521000E55B0008D55E0008456400082D620008C3
:1052200025610008A36A0008A15F0008F95B000877
:10523000896A0008315B000899600008E15C000899
:10524000695C00082DE9F04387B014216846FBF73C
:1052500098F947480024016841F020010160016885
:1052600001F020010591016841F0800101600168B1
:1052700001F080010591016841F0010101600168C0
:1052800001F001010591016841F00401016001682C
:1052900001F004010591016841F00201016001681B
:1052A00001F002010591016841F0400101600168CF
:1052B00001F040010591016841F0100101600168B1
:1052C00001F010010591016841F0080101600068DA
:1052D000284F00F008004FF4F065059000222946A1
:1052E0003846FEF7BEFBDFF89080002220214046C2
:1052F000FEF7B7FBDFF884904FF44076002231468A
:105300004846FEF7AEFB00950125CDE901546946FC
:1053100038460394FEF7A8FA20200090CDE9015406
:10532000694640460394FEF79FFA4FF410408DE81B
:10533000310069463846FEF797FA03208DE83100C0
:1053400069460F48FEF790FA4FF4AC508DE83100F3
:1053500069460C48FEF788FA11200096CDE9010451
:10536000694648460394FEF77FFA07B0BDE8F0832C
:10537000303802400014024000080240000402409D
:1053800000180240001002400D4810B50B490160A2
:105390000C49416000214FF480428160C0E9031252
:1053A00041618161C1610162FEF766FB002803D0A3
:1053B000BDE81040FDF751BA10BD00000054004098
:1053C000F8010020A086010010B588B01C216846B5
:1053D000FBF7D7F81248114900240160A721C0E962
:1053E00001144FF6FF71C0E9031480218161FFF7BA
:1053F0003EFA08B1FDF731FA6020CDE900040294CD
:105400000022694606480494FFF7CBF908B1FDF77E
:1054100024FA0348FFF72EF908B010BD0018004029
:105420006C03002010B592B000240F941C21684634
:105430001094FBF7A6F8202107A8FBF7A2F82D4847
:105440002B490160A721C0E9011444F61F61C0E99E
:1054500003148021C0E90541FFF709FA08B1FDF7FF
:10546000FCF90F940FA923481094FEF7B3FF08B17D
:10547000FDF7F3F96020CDE900040294039404944D
:105480000594002269461B480694FFF78AF908B183
:10549000FDF7E3F9042269461648FFF782F908B1DF
:1054A000FDF7DBF9082269461248FFF77AF908B1DF
:1054B000FDF7D3F90C2269460E48FFF772F908B1DF
:1054C000FDF7CBF90794089409944FF400500A941F
:1054D000CDE90B4007A907480E94FEF751FF08B12C
:1054E000FDF7BBF90348FFF7C5F812B010BD000087
:1054F000000001404C02002010B58AB0002407943F
:105500001C2168460894FBF73CF81A484FF080418C
:1055100001605321C0E9011444F61F61C0E903147E
:1055200080218161FFF7A3F908B1FDF796F907948F
:1055300007A910480894FEF74DFF08B1FDF78DF953
:105540006020CDE9000402940822694609480494C9
:10555000FFF727F908B1FDF780F90C2269460548E5
:10556000FFF71FF908B1FDF778F90248FFF782F855
:105570000AB010BD9402002010B58AB00024079430
:105580001C2168460894FAF7FCFF1F481D4901607A
:105590005321C0E9011444F61F61C0E903148021BE
:1055A0008161FFF764F908B1FDF757F9079407A97E
:1055B00015480894FEF70EFF08B1FDF74EF960207C
:1055C000CDE900040294002269460F480494FFF7D5
:1055D000E8F808B1FDF741F9042269460A48FFF7E7
:1055E000E0F808B1FDF739F9082269460648FFF7E7
:1055F000D8F808B1FDF731F90348FFF73BF80AB0D6
:1056000010BD000000040040DC02002010B58AB08C
:10561000002407941C2168460894FAF7B2FF164844
:1056200014490160A721C0E901142C21C0E9031429
:1056300080218161FFF71BF908B1FDF70EF907948E
:1056400007A90D480894FEF7C5FE08B1FDF705F956
:105650006020CDE9000402940422694606480494BF
:10566000FFF79FF808B1FDF7F8F80348FFF702F8D5
:105670000AB010BD000C0040240300200C4810B5F7
:105680000A4901604FF416514160002181600C22EB
:10569000C160C0E904128161C161FFF701FB00280C
:1056A00003D0BDE81040FDF7D8B810BD0010014090
:1056B000B40300200C4810B50A4901604FF416519C
:1056C0004160002181600C22C160C0E90412816147
:1056D000C161FFF7E5FA002803D0BDE81040FDF7EF
:1056E000BCB810BD00440040FC0300200C4810B5BD
:1056F0000A4901604FF416514160002181600C227B
:10570000C160C0E904128161C161FFF7C9FA0028D4
:1057100003D0BDE81040FDF7A0B810BD0014014053
:1057200044040020FEE7FEE710B50021074C0A46BE
:10573000002004EBC1131A54401CC0B28028FAD3D5
:10574000491CC9B20829F3D310BD000028950020D8
:1057500000B587B000214FF47A720020401C9042BF
:10576000FCD3491C9142F8D314216846FAF709FF8B
:105770000E480021026842F002020260006800F058
:10578000020005904FF4407000901120CDE9010116
:10579000039169460648FEF767F8012000F0B6F865
:1057A000012000F0C1F807B000BD00003038024011
:1057B0000004024070B500240646802525FA04F056
:1057C000304000D0012000F0AFF8012000F09EF83A
:1057D000002000F09BF8641CE4B2082CEED30120FA
:1057E00000F094F8BDE87040002000F08FB810B5CC
:1057F000012000F099F8012000F088F8002000F066
:1058000093F8BDE81040002000F080B810B50020EB
:1058100000F08AF8012000F079F8BDE8104001207E
:1058200000F082B810B5FFF793FFAE2000F08AF8C1
:10583000D52000F087F8802000F084F8A82000F040
:1058400081F83F2000F07EF8D32000F07BF80020A4
:1058500000F078F8402000F075F8A12000F072F810
:10586000C82000F06FF8DA2000F06CF8122000F089
:1058700069F8812000F066F8CF2000F063F8D920A5
:1058800000F060F8F12000F05DF8DB2000F05AF83D
:10589000302000F057F8A42000F054F8A62000F0C3
:1058A00051F88D2000F04EF8142000F04BF8AF2096
:1058B00000F048F8FFF738FFBDE8104000F012B8DC
:1058C00010B50C4640F0B00000F03CF8102040EA63
:1058D000141000F037F804F00F00BDE8104000F09D
:1058E00031B8000070B5084D002400212046FFF7B4
:1058F000E7FF05EBC410802100F035F8641CE4B22A
:10590000082CF2D370BD00002895002010B5024687
:105910004FF480710348FEF7A4F80120401C0A28C8
:10592000FCDD10BD0004024010B502464FF40071CA
:105930000348FEF796F80120401C0A28FCDD10BD44
:105940000004024010B50446FFF751FF7820FFF72E
:1059500031FF0020FFF72EFF2046FFF72BFFBDE8A9
:105960001040FFF753BF70B50D460646FFF73FFFE7
:105970007820FFF71FFF4020FFF71CFF002404E002
:10598000305DFFF717FF641CE4B2AC42F8D3BDE80A
:105990007040FFF73BBF000070B500214A48FEF79A
:1059A000D5FF04214848FEF7D1FF08214648FEF7FD
:1059B000CDFF0C214448FEF7C9FF04214348FEF700
:1059C000C5FF00214148FEF7C1FF0C214048FEF70A
:1059D000BDFF08213E48FEF7B9FF04213D48FEF710
:1059E000B5FF3D489FED3D0A4FF4FA73D0ED050A2F
:1059F00020EE801ADFED3A0AC1EE201ABDEEE11A60
:105A000011EE101A01F5FA710AB22F490C6862639F
:105A100090ED061ADFED331A0C6821EE001A81EEC4
:105A2000212ABDEEC21A11EE102A02F5FA7212B244
:105A3000A26390ED071A0C6821EE001AC1EE201A3D
:105A4000BDEEE11A11EE102A02F5FA7212B2E2630B
:105A500090ED081A096821EE000A80EE201ABDEECA
:105A6000C10A10EE100A00F5FA7000B20864174877
:105A700040F28E4102689163006843630022202156
:105A80001948FDF7EEFF1248002401680C64006815
:105A9000C463164D22464FF480612846FDF7E1FFAE
:105AA000012211022846FDF7DCFF0122510228469F
:105AB000FDF7D7FF002280212846FDF7D2FF0548D9
:105AC0000068846370BD00004C020020DC020020EE
:105AD0009402002024030020040100200000FA4466
